:03000000022500D6
:03002B0002202B85
:0E250000E58954F04401F589758800756F0077
:0F250E00757000756E0090FF107438F012273A48
:0F251D0090FF107438F012273A90FF10740CF0F2
:0F252C0012273A90FF107406F012273A90FF1012
:0F253B007401F012273F1226E5C297C2B3C2B255
:0E254A00C2963090FD756F00757000756E00C2
:0F25580075710020931220921E20912A12273FA6
:0F25670090275E1226EF0226D875710A12273FC1
:0F2576009027881226EF02262475710712273F3F
:0F2585009027791226EF02262475710512273F41
:0F25940090276A1226EF02262430940E756E02ED
:0E25A300C2961226B81226B80225C230950E36
:0E25B100756E05C2961226B81226B80225C213
:0F25BF0002263FE4E56E356FF56FC3E571956F4A
:0F25CE00F570756E004011700C12273F9027A317
:1025DD001226EF0226D8022721C3E4E57075F0FF1D
:0F25ED00A4F57075F00012273F9027981226EF83
:0F25FC00E57012270B022604D2B21226B8C2B223
:10260B001226B8D2B31226B8C2B3D570EC12273F3C
:0F261B009027A31226EF0226D87572951226A4D7
:0F262A0012259DD572F77572951226A412259D63
:0F263900D572F702264022757214D2961226A48B
:0E26480012259DD572F7022651757213C296A7
:0F2656001226A412259DD572F7022640757295A3
:0F2665001226A4309034D572F77572951226A400
:0E267400309028D572F702267D757214D2962A
:0F2682001226A4309017D572F702268E757213A8
:10269100C2961226A4309006D572F702267DC29604
:1026A1000226CC7E02758C3C758AAFD28C308DFDB2
:0F26B100C28DDEF1C28C227E14758C3C758AAF0F
:0F26C000D28C308DFDC28DDEF1C28C227572047A
:1026CF001226B8D572FA0226DDD297022662C29779
:1026DF001226E502254C12273F9027491226EF229A
:0F26EF00E582FAE583FBE493601190FF11F0EAB6
:1026FE00F582EBF583A312273A0226EF2290FF1103
:0F270E0075F00A842430F012273AE5F02430F0F9
:0F271D0012273A2212273F9027531226EFE5701A
:10272C0012270B0226247A2912273ADAFB2279285F
:10273C00D9FE2290FF107401F01227322242454D2F
:10274C002056494E444F0046414C54414D20522492
:10275C0020004D4F544F204953454E544100564193
:10276C004C4F523A20522420352C30300056414CDC
:10277C004F523A20522420372C30300056414C4FC7
:10278C00523A2052242031302C30300054524F43D6
:10279C004F2052243A200043414E43454C412041A6
:0727AC004245525441210097
:00000001FF
